:1000000019C020C01FC01EC01DC01CC01BC01AC00C
:1000100019C018C017C016C015C014C013C012C034
:1000200011C010C00FC00EC00DC00CC00BC00AC064
:1000300009C008C011241FBECFEFCDBFDFE3DEBF74
:1000400038D043C0DDCFE0E0F4E080818F7780835B
:10005000808180648083E0E0F8E08DE695E0808731
:10006000918786818064868308959091040895FF26
:10007000FCCF8093020808950F931F93CF93DF93D3
:10008000EC018C01FE0101900020E9F73197EC1B97
:10009000FD0BC8018C1B9D0B8E179F0728F0DF916D
:1000A000CF911F910F910895F80181918F01DDDFAC
:1000B000E9CFC9DF8EEC90E8DFDF25E186E195E04E
:0E00C000215080409040E1F7F5CFF894FFCF3B
:0F00CE0048656C6C6F20576F726C64210D0A00CF
:00000001FF
